:020000040800F2
:1000000000000220A1030008B9030008B90300089A
:10001000B9030008B9030008B90300080000000094
:10002000000000000000000000000000B90300080C
:10003000B903000800000000B9030008B903000874
:10004000B8030008B8030008B8030008B8030008A4
:10005000B8030008B8030008B8030008B803000894
:10006000B8030008B8030008B8030008B803000884
:10007000B8030008B8030008B8030008B803000874
:10008000B8030008B8030008B8030008B803000864
:10009000B8030008B8030008B8030008B803000854
:1000A000B8030008B8030008B8030008B803000844
:1000B000B8030008B8030008B8030008B803000834
:1000C000B8030008B8030008B8030008B803000824
:1000D000B8030008B8030008B8030008B803000814
:1000E000B8030008B8030008B8030008B803000804
:1000F000B8030008B8030008B8030008B8030008F4
:10010000B8030008B8030008B8030008B8030008E3
:10011000B8030008B8030008B8030008B8030008D3
:10012000B8030008B8030008B8030008B8030008C3
:10013000B8030008B8030008B8030008B8030008B3
:10014000B8030008B8030008B8030008B8030008A3
:10015000B8030008B8030008B8030008B803000893
:10016000B8030008B8030008B8030008B803000883
:10017000B8030008B8030008B8030008B803000873
:08018000B8030008B8030008F1
:100188000348044B834202D0034B03B1184770471E
:100198003804002038040020000000000548064B01
:1001A8001B1AD90F01EBA301491002D0034B03B16D
:1001B8001847704738040020380400200000000069
:1001C80010B5064C237843B9FFF7DAFF044B13B197
:1001D8000448AFF300800123237010BD38040020C9
:1001E80000000000D003000808B5044B1BB1044907
:1001F8000448AFF30080BDE80840CFE700000000E6
:100208003C040020D003000808B500F011F8074CA2
:100218002023A3614FF4FA7000F02AF84FF400137A
:10022800A3614FF4FA7000F023F8F0E700000240F1
:100238000D4A136B43F0010313630C4B1A6822F445
:1002480040621A601A6842F480621A605A6822F0A2
:1002580020025A609A6842F440629A60DA6822F48E
:100268004062DA60704700BF003802400000024078
:10027800002106E000BF013349F63F429342F9D915
:100288000131814201D20023F6E77047024B4FF05B
:1002980000629A60704700BF00ED00E0014B024A1F
:1002A8001A607047000000200024F4000023014673
:1002B8001A46184600F03CB838B5074D074C2C1BB9
:1002C800A41005D0013C55F8043D9847002CF9D1FD
:1002D800BDE8384000F07EB8F8030008F4030008D1
:1002E80070B50F4B0F4DAB42A3EB050607D0B61008
:1002F800002455F8043B01349847A642F9D800F089
:1003080063F8094D094B5E1BAB424FEAA60606D0BF
:10031800002455F8043B01349847A642F9D870BD2B
:10032800EC030008EC030008EC030008F4030008E1
:1003380070B4184C2568D5F848411CB365681F2D62
:1003480025DC38B9AB1C0135656044F82310002062
:1003580070BC704704EB850C0228CCF88820D4F8D0
:1003680088614FF0010202FA05F246EA0206C4F873
:100378008861CCF80831E5D1D4F88C311343C4F83E
:100388008C31DFE705F5A674C5F84841D6E74FF08C
:10039800FF30DDE7E8030008DFF810D0FFF776FF4D
:1003A800FFF79EFFFFF730FF7047000000000220B4
:1003B800FEE70000024B13B10248FFF777BF704712
:1003C80000000000C1020008F8B500BFF8BC08BC76
:1003D8009E467047F8B500BFF8BC08BC9E467047FB
:0403E80010000020E1
:0803EC00BD030008F101000847
:0403F400C901000833
:1003F8000024F400000000001000002000000000AD
:1004080000000000FC02002064030020CC03002050
:1004180000000000000000000000000000000000D4
:1004280000000000000000000000000000000000C4
:1004380000000000000000000000000000000000B4
:1004480000000000000000000000000000000000A4
:100458000000000000000000000000000000000094
:100468000000000000000000000000000000000084
:100478000000000000000000000000000000000074
:100488000000000000000000000000000000000064
:100498000000000000000000000000000000000054
:1004A8000000000000000000010000000000000043
:1004B8000E33CDAB34126DE6ECDE05000B00000008
:1004C8000000000000000000000000000000000024
:1004D8000000000000000000000000000000000014
:1004E8000000000000000000000000000000000004
:1004F80000000000000000000000000000000000F4
:04000005080003A14B
:00000001FF
