:100000000C9434000C9446000C9446000C9446006A
:100010000C9446000C9446000C9446000C94460048
:100020000C9446000C9446000C9446000C94480036
:100030000C9446000C9446000C9446000C94460028
:100040000C9446000C9446000C9446000C94460018
:100050000C9446000C9446000C9446000C94460008
:100060000C9446000C94460011241FBECFEFD8E03C
:10007000DEBFCDBF21E0A0E0B1E001C01D92A33002
:10008000B207E1F70E946C000C948E000C94000003
:100090001F920F920FB60F9211248F939F9380910E
:1000A0000101909102010196909302018093010158
:1000B0008091010190910201C29738F010920201E3
:1000C0001092010181E0809300019F918F910F9028
:1000D0000FBE0F901F901895259A8091810088601F
:1000E000809381008091810083608093810083EC04
:1000F00099E0909389008093880080916F008260DE
:1001000080936F00789490E2809100018823E1F35E
:100110001092000185B1892785B9F6CFF894FFCFF9
:00000001FF
